{"abi":[{"type":"constructor","inputs":[{"name":"_b","type":"address","internalType":"address"}],"stateMutability":"payable"},{"type":"function","name":"payHalf","inputs":[],"outputs":[],"stateMutability":"payable"}],"bytecode":{"object":"0x60806040526040516102fb3803806102fb83398101604081905260209160b1565b600080546001600160a01b0319166001600160a01b0383161790556042476047565b5060df565b608d81604051602401605b91815260200190565b60408051601f198184030181529190526020810180516001600160e01b0390811663f5b1bba960e01b17909152609016565b50565b80516a636f6e736f6c652e6c6f67602083016000808483855afa5050505050565b60006020828403121560c257600080fd5b81516001600160a01b038116811460d857600080fd5b9392505050565b61020d806100ee6000396000f3fe60806040526004361061001e5760003560e01c80631d9ab27014610023575b600080fd5b61002b61002d565b005b600080544791906001600160a01b0316610048600284610160565b604051600081818185875af1925050503d8060008114610084576040519150601f19603f3d011682016040523d82523d6000602084013e610089565b606091505b505090508061009757600080fd5b60408051808201909152600a81526931103130b630b731b29d60b11b60208201526000546100cf91906001600160a01b0316316100ff565b6100fb6040518060400160405280600a81526020016930903130b630b731b29d60b11b815250476100ff565b5050565b6100fb8282604051602401610115929190610182565b60408051601f198184030181529190526020810180516001600160e01b03166309710a9d60e41b17905280516a636f6e736f6c652e6c6f67602083016000808483855afa5050505050565b60008261017d57634e487b7160e01b600052601260045260246000fd5b500490565b604081526000835180604084015260005b818110156101b05760208187018101516060868401015201610193565b506000606082850101526060601f19601f830116840101915050826020830152939250505056fea2646970667358221220d51ce5f616a5834ddfa794d8aa75f1f85c4d861d1995fd9d77f8abfb45d589e164736f6c634300081a0033","linkReferences":{}},"methodIdentifiers":{"payHalf()":"1d9ab270"},"id":18}