{"abi":[{"type":"function","name":"createOrder","inputs":[{"name":"buyer","type":"address","internalType":"address"},{"name":"seller","type":"address","internalType":"address"},{"name":"amount","type":"uint256","internalType":"uint256"}],"outputs":[],"stateMutability":"nonpayable"},{"type":"function","name":"getOrder","inputs":[{"name":"key","type":"uint256","internalType":"uint256"}],"outputs":[{"name":"","type":"tuple","internalType":"struct Example.Order","components":[{"name":"buyer","type":"address","internalType":"address"},{"name":"seller","type":"address","internalType":"address"},{"name":"amount","type":"uint256","internalType":"uint256"},{"name":"status","type":"uint8","internalType":"enum Example.OrderStatus"}]}],"stateMutability":"view"},{"type":"function","name":"payment","inputs":[{"name":"key","type":"uint256","internalType":"uint256"}],"outputs":[],"stateMutability":"payable"},{"type":"event","name":"OrderCreated","inputs":[{"name":"key","type":"uint256","indexed":true,"internalType":"uint256"}],"anonymous":false}],"bytecode":{"object":"0x6080604052348015600f57600080fd5b5061049a8061001f6000396000f3fe6080604052600436106100345760003560e01c80638b3c99e3146100395780639a5d6a4a1461004e578063d09ef2411461006e575b600080fd5b61004c610047366004610344565b6100a4565b005b34801561005a57600080fd5b5061004c610069366004610379565b610124565b34801561007a57600080fd5b5061008e610089366004610344565b610284565b60405161009b91906103cc565b60405180910390f35b60008082815481106100b8576100b8610427565b90600052602060002090600402019050348160020154146100d857600080fd5b80546001600160a01b031633146100ee57600080fd5b6000600382015460ff166001811115610109576101096103b6565b1461011357600080fd5b600301805460ff1916600117905550565b604080516080810182526001600160a01b03858116825284811660208301908152928201848152600060608401818152815460018082018455928052855160049091027f290decd9548b62a8d60345a988386fc84ba6bc95484008f6362f93160ef3e563810180549287166001600160a01b031993841617815597517f290decd9548b62a8d60345a988386fc84ba6bc95484008f6362f93160ef3e564820180549190971692169190911790945591517f290decd9548b62a8d60345a988386fc84ba6bc95484008f6362f93160ef3e56584015590517f290decd9548b62a8d60345a988386fc84ba6bc95484008f6362f93160ef3e56690920180549394859490939260ff1990911690838181111561023f5761023f6103b6565b021790555050600054610255915060019061043d565b6040517f7e82078c35b6665b9d320ebeaa6c266960fad5b802c5558cf7df60c4769af95b90600090a250505050565b6102ac6040805160808101825260008082526020820181905291810182905290606082015290565b600082815481106102bf576102bf610427565b600091825260209182902060408051608081018252600490930290910180546001600160a01b03908116845260018083015490911694840194909452600281015491830191909152600381015491929091606084019160ff9091169081111561032a5761032a6103b6565b600181111561033b5761033b6103b6565b90525092915050565b60006020828403121561035657600080fd5b5035919050565b80356001600160a01b038116811461037457600080fd5b919050565b60008060006060848603121561038e57600080fd5b6103978461035d565b92506103a56020850161035d565b929592945050506040919091013590565b634e487b7160e01b600052602160045260246000fd5b81516001600160a01b0390811682526020808401519091169082015260408083015190820152606082015160808201906002811061041a57634e487b7160e01b600052602160045260246000fd5b8060608401525092915050565b634e487b7160e01b600052603260045260246000fd5b8181038181111561045e57634e487b7160e01b600052601160045260246000fd5b9291505056fea26469706673582212204dd72a3fbfcf00ae1728caa3612953b5091580d78b34d999b98648dec9ae77bf64736f6c634300081a0033","linkReferences":{}},"methodIdentifiers":{"createOrder(address,address,uint256)":"9a5d6a4a","getOrder(uint256)":"d09ef241","payment(uint256)":"8b3c99e3"},"id":18}