{"abi":[{"type":"function","name":"castVote","inputs":[{"name":"proposalId","type":"uint256","internalType":"uint256"},{"name":"supportProposal","type":"bool","internalType":"bool"}],"outputs":[],"stateMutability":"nonpayable"},{"type":"function","name":"newProposal","inputs":[{"name":"_target","type":"address","internalType":"address"},{"name":"_calldata","type":"bytes","internalType":"bytes"}],"outputs":[],"stateMutability":"nonpayable"},{"type":"function","name":"proposalIdToOwner","inputs":[{"name":"","type":"uint256","internalType":"uint256"}],"outputs":[{"name":"","type":"address","internalType":"address"}],"stateMutability":"view"},{"type":"function","name":"proposalIdToOwnerToSupport","inputs":[{"name":"","type":"uint256","internalType":"uint256"},{"name":"","type":"address","internalType":"address"}],"outputs":[{"name":"","type":"bool","internalType":"bool"}],"stateMutability":"view"},{"type":"function","name":"proposals","inputs":[{"name":"","type":"uint256","internalType":"uint256"}],"outputs":[{"name":"target","type":"address","internalType":"address"},{"name":"data","type":"bytes","internalType":"bytes"},{"name":"yesCount","type":"uint256","internalType":"uint256"},{"name":"noCount","type":"uint256","internalType":"uint256"}],"stateMutability":"view"}],"bytecode":{"object":"0x6080604052348015600f57600080fd5b506106228061001f6000396000f3fe608060405234801561001057600080fd5b50600436106100575760003560e01c8063013cf08b1461005c57806315373e3d146100885780631a3fd1221461009c5780638b83827d146100af578063f8da327d146100f0575b600080fd5b61006f61006a3660046102c3565b61012e565b60405161007f94939291906102dc565b60405180910390f35b61009a610096366004610347565b5050565b005b61009a6100aa3660046103ae565b6101fc565b6100d86100bd3660046102c3565b6000602081905290815260409020546001600160a01b031681565b6040516001600160a01b03909116815260200161007f565b61011e6100fe366004610478565b600160209081526000928352604080842090915290825290205460ff1681565b604051901515815260200161007f565b6002818154811061013e57600080fd5b6000918252602090912060049091020180546001820180546001600160a01b0390921693509061016d906104a4565b80601f0160208091040260200160405190810160405280929190818152602001828054610199906104a4565b80156101e65780601f106101bb576101008083540402835291602001916101e6565b820191906000526020600020905b8154815290600101906020018083116101c957829003601f168201915b5050505050908060020154908060030154905084565b604080516080810182526001600160a01b0384811682526020820184815260009383018490526060830184905260028054600181018255945282517f405787fa12a823e0f2b7631cc41b3ba8828b3321ca811111fa75cd3aa3bb5ace600490950294850180546001600160a01b0319169190931617825551919283927f405787fa12a823e0f2b7631cc41b3ba8828b3321ca811111fa75cd3aa3bb5acf909101906102a7908261052d565b5060408201518160020155606082015181600301555050505050565b6000602082840312156102d557600080fd5b5035919050565b60018060a01b0385168152608060208201526000845180608084015260005b8181101561031857602081880181015160a08684010152016102fb565b50600060a0828501015260a0601f19601f83011684010191505083604083015282606083015295945050505050565b6000806040838503121561035a57600080fd5b823591506020830135801515811461037157600080fd5b809150509250929050565b80356001600160a01b038116811461039357600080fd5b919050565b634e487b7160e01b600052604160045260246000fd5b600080604083850312156103c157600080fd5b6103ca8361037c565b9150602083013567ffffffffffffffff8111156103e657600080fd5b8301601f810185136103f757600080fd5b803567ffffffffffffffff81111561041157610411610398565b604051601f8201601f19908116603f0116810167ffffffffffffffff8111828210171561044057610440610398565b60405281815282820160200187101561045857600080fd5b816020840160208301376000602083830101528093505050509250929050565b6000806040838503121561048b57600080fd5b8235915061049b6020840161037c565b90509250929050565b600181811c908216806104b857607f821691505b6020821081036104d857634e487b7160e01b600052602260045260246000fd5b50919050565b601f82111561052857806000526020600020601f840160051c810160208510156105055750805b601f840160051c820191505b818110156105255760008155600101610511565b50505b505050565b815167ffffffffffffffff81111561054757610547610398565b61055b8161055584546104a4565b846104de565b6020601f82116001811461058f57600083156105775750848201515b600019600385901b1c1916600184901b178455610525565b600084815260208120601f198516915b828110156105bf578785015182556020948501946001909201910161059f565b50848210156105dd5786840151600019600387901b60f8161c191681555b50505050600190811b0190555056fea264697066735822122081c5dbd4f57a509066156c5a890f7f394542602b210191006a17877b0cfbddf164736f6c634300081a0033","linkReferences":{}},"methodIdentifiers":{"castVote(uint256,bool)":"15373e3d","newProposal(address,bytes)":"1a3fd122","proposalIdToOwner(uint256)":"8b83827d","proposalIdToOwnerToSupport(uint256,address)":"f8da327d","proposals(uint256)":"013cf08b"},"id":18}