{"abi":[{"type":"constructor","inputs":[{"name":"_b","type":"address","internalType":"address"}],"stateMutability":"nonpayable"},{"type":"function","name":"sum","inputs":[],"outputs":[{"name":"","type":"uint256","internalType":"uint256"}],"stateMutability":"view"}],"bytecode":{"object":"0x608060405234801561001057600080fd5b5060405161020f38038061020f83398101604081905261002f9161010c565b600180546001600160a01b0319166001600160a01b038316908117825560405160248101929092526005604483015260009182919060640160408051601f198184030181529181526020820180516001600160e01b031663771602f760e01b1790525161009c919061013c565b6000604051808303816000865af19150503d80600081146100d9576040519150601f19603f3d011682016040523d82523d6000602084013e6100de565b606091505b5091509150808060200190518101906100f7919061016b565b6000558161010457600080fd5b505050610184565b60006020828403121561011e57600080fd5b81516001600160a01b038116811461013557600080fd5b9392505050565b6000825160005b8181101561015d5760208186018101518583015201610143565b506000920191825250919050565b60006020828403121561017d57600080fd5b5051919050565b607d806101926000396000f3fe6080604052348015600f57600080fd5b506004361060285760003560e01c8063853255cc14602d575b600080fd5b603560005481565b60405190815260200160405180910390f3fea26469706673582212206b6c9aacad0dbe45ff1ccbd8bda63f73db8fa187f1cd8501ff99cfa3c3c5041c64736f6c634300081a0033","linkReferences":{}},"methodIdentifiers":{"sum()":"853255cc"},"id":18}